{
  "_format": "hh-sol-artifact-1",
  "contractName": "MasterChef",
  "sourceName": "contracts/MasterChef.sol",
  "abi": [
    {
      "inputs": [
        {
          "internalType": "contract BSWToken",
          "name": "_BSW",
          "type": "address"
        },
        {
          "internalType": "address",
          "name": "_devaddr",
          "type": "address"
        },
        {
          "internalType": "address",
          "name": "_refAddr",
          "type": "address"
        },
        {
          "internalType": "uint256",
          "name": "_BSWPerBlock",
          "type": "uint256"
        },
        {
          "internalType": "uint256",
          "name": "_startBlock",
          "type": "uint256"
        },
        {
          "internalType": "uint256",
          "name": "_bonusEndBlock",
          "type": "uint256"
        },
        {
          "internalType": "uint256",
          "name": "_stakingPercent",
          "type": "uint256"
        },
        {
          "internalType": "uint256",
          "name": "_devPercent",
          "type": "uint256"
        },
        {
          "internalType": "uint256",
          "name": "_refPercent",
          "type": "uint256"
        }
      ],
      "stateMutability": "nonpayable",
      "type": "constructor"
    },
    {
      "anonymous": false,
      "inputs": [
        {
          "indexed": true,
          "internalType": "address",
          "name": "user",
          "type": "address"
        },
        {
          "indexed": true,
          "internalType": "uint256",
          "name": "pid",
          "type": "uint256"
        },
        {
          "indexed": false,
          "internalType": "uint256",
          "name": "amount",
          "type": "uint256"
        }
      ],
      "name": "Deposit",
      "type": "event"
    },
    {
      "anonymous": false,
      "inputs": [
        {
          "indexed": false,
          "internalType": "uint256",
          "name": "currentPercent",
          "type": "uint256"
        }
      ],
      "name": "DevPercentChanged",
      "type": "event"
    },
    {
      "anonymous": false,
      "inputs": [
        {
          "indexed": true,
          "internalType": "address",
          "name": "user",
          "type": "address"
        },
        {
          "indexed": true,
          "internalType": "uint256",
          "name": "pid",
          "type": "uint256"
        },
        {
          "indexed": false,
          "internalType": "uint256",
          "name": "amount",
          "type": "uint256"
        }
      ],
      "name": "EmergencyWithdraw",
      "type": "event"
    },
    {
      "anonymous": false,
      "inputs": [
        {
          "indexed": true,
          "internalType": "address",
          "name": "previousOwner",
          "type": "address"
        },
        {
          "indexed": true,
          "internalType": "address",
          "name": "newOwner",
          "type": "address"
        }
      ],
      "name": "OwnershipTransferred",
      "type": "event"
    },
    {
      "anonymous": false,
      "inputs": [
        {
          "indexed": false,
          "internalType": "uint256",
          "name": "currentPercent",
          "type": "uint256"
        }
      ],
      "name": "RefPercentChanged",
      "type": "event"
    },
    {
      "anonymous": false,
      "inputs": [
        {
          "indexed": false,
          "internalType": "uint256",
          "name": "currentPercent",
          "type": "uint256"
        }
      ],
      "name": "StakingPercentChanged",
      "type": "event"
    },
    {
      "anonymous": false,
      "inputs": [
        {
          "indexed": true,
          "internalType": "address",
          "name": "user",
          "type": "address"
        },
        {
          "indexed": true,
          "internalType": "uint256",
          "name": "pid",
          "type": "uint256"
        },
        {
          "indexed": false,
          "internalType": "uint256",
          "name": "amount",
          "type": "uint256"
        }
      ],
      "name": "Withdraw",
      "type": "event"
    },
    {
      "inputs": [],
      "name": "BONUS_MULTIPLIER",
      "outputs": [
        {
          "internalType": "uint256",
          "name": "",
          "type": "uint256"
        }
      ],
      "stateMutability": "view",
      "type": "function"
    },
    {
      "inputs": [],
      "name": "BSW",
      "outputs": [
        {
          "internalType": "contract BSWToken",
          "name": "",
          "type": "address"
        }
      ],
      "stateMutability": "view",
      "type": "function"
    },
    {
      "inputs": [],
      "name": "BSWPerBlock",
      "outputs": [
        {
          "internalType": "uint256",
          "name": "",
          "type": "uint256"
        }
      ],
      "stateMutability": "view",
      "type": "function"
    },
    {
      "inputs": [
        {
          "internalType": "uint256",
          "name": "_allocPoint",
          "type": "uint256"
        },
        {
          "internalType": "contract IBEP20",
          "name": "_lpToken",
          "type": "address"
        },
        {
          "internalType": "bool",
          "name": "_withUpdate",
          "type": "bool"
        }
      ],
      "name": "add",
      "outputs": [],
      "stateMutability": "nonpayable",
      "type": "function"
    },
    {
      "inputs": [],
      "name": "bonusEndBlock",
      "outputs": [
        {
          "internalType": "uint256",
          "name": "",
          "type": "uint256"
        }
      ],
      "stateMutability": "view",
      "type": "function"
    },
    {
      "inputs": [
        {
          "internalType": "uint256",
          "name": "_pid",
          "type": "uint256"
        },
        {
          "internalType": "uint256",
          "name": "_amount",
          "type": "uint256"
        }
      ],
      "name": "deposit",
      "outputs": [],
      "stateMutability": "nonpayable",
      "type": "function"
    },
    {
      "inputs": [
        {
          "internalType": "address",
          "name": "_devaddr",
          "type": "address"
        }
      ],
      "name": "dev",
      "outputs": [],
      "stateMutability": "nonpayable",
      "type": "function"
    },
    {
      "inputs": [],
      "name": "devPercent",
      "outputs": [
        {
          "internalType": "uint256",
          "name": "",
          "type": "uint256"
        }
      ],
      "stateMutability": "view",
      "type": "function"
    },
    {
      "inputs": [],
      "name": "devaddr",
      "outputs": [
        {
          "internalType": "address",
          "name": "",
          "type": "address"
        }
      ],
      "stateMutability": "view",
      "type": "function"
    },
    {
      "inputs": [
        {
          "internalType": "uint256",
          "name": "_pid",
          "type": "uint256"
        }
      ],
      "name": "emergencyWithdraw",
      "outputs": [],
      "stateMutability": "nonpayable",
      "type": "function"
    },
    {
      "inputs": [
        {
          "internalType": "uint256",
          "name": "_from",
          "type": "uint256"
        },
        {
          "internalType": "uint256",
          "name": "_to",
          "type": "uint256"
        }
      ],
      "name": "getMultiplier",
      "outputs": [
        {
          "internalType": "uint256",
          "name": "",
          "type": "uint256"
        }
      ],
      "stateMutability": "view",
      "type": "function"
    },
    {
      "inputs": [],
      "name": "lastBlockDevWithdraw",
      "outputs": [
        {
          "internalType": "uint256",
          "name": "",
          "type": "uint256"
        }
      ],
      "stateMutability": "view",
      "type": "function"
    },
    {
      "inputs": [],
      "name": "massUpdatePools",
      "outputs": [],
      "stateMutability": "nonpayable",
      "type": "function"
    },
    {
      "inputs": [
        {
          "internalType": "uint256",
          "name": "_pid",
          "type": "uint256"
        }
      ],
      "name": "migrate",
      "outputs": [],
      "stateMutability": "nonpayable",
      "type": "function"
    },
    {
      "inputs": [],
      "name": "migrator",
      "outputs": [
        {
          "internalType": "contract IMigratorChef",
          "name": "",
          "type": "address"
        }
      ],
      "stateMutability": "view",
      "type": "function"
    },
    {
      "inputs": [],
      "name": "owner",
      "outputs": [
        {
          "internalType": "address",
          "name": "",
          "type": "address"
        }
      ],
      "stateMutability": "view",
      "type": "function"
    },
    {
      "inputs": [
        {
          "internalType": "uint256",
          "name": "_pid",
          "type": "uint256"
        },
        {
          "internalType": "address",
          "name": "_user",
          "type": "address"
        }
      ],
      "name": "pendingBSW",
      "outputs": [
        {
          "internalType": "uint256",
          "name": "",
          "type": "uint256"
        }
      ],
      "stateMutability": "view",
      "type": "function"
    },
    {
      "inputs": [],
      "name": "percentDec",
      "outputs": [
        {
          "internalType": "uint256",
          "name": "",
          "type": "uint256"
        }
      ],
      "stateMutability": "view",
      "type": "function"
    },
    {
      "inputs": [
        {
          "internalType": "uint256",
          "name": "",
          "type": "uint256"
        }
      ],
      "name": "poolInfo",
      "outputs": [
        {
          "internalType": "contract IBEP20",
          "name": "lpToken",
          "type": "address"
        },
        {
          "internalType": "uint256",
          "name": "allocPoint",
          "type": "uint256"
        },
        {
          "internalType": "uint256",
          "name": "lastRewardBlock",
          "type": "uint256"
        },
        {
          "internalType": "uint256",
          "name": "accBSWPerShare",
          "type": "uint256"
        }
      ],
      "stateMutability": "view",
      "type": "function"
    },
    {
      "inputs": [],
      "name": "poolLength",
      "outputs": [
        {
          "internalType": "uint256",
          "name": "",
          "type": "uint256"
        }
      ],
      "stateMutability": "view",
      "type": "function"
    },
    {
      "inputs": [],
      "name": "refAddr",
      "outputs": [
        {
          "internalType": "address",
          "name": "",
          "type": "address"
        }
      ],
      "stateMutability": "view",
      "type": "function"
    },
    {
      "inputs": [],
      "name": "refPercent",
      "outputs": [
        {
          "internalType": "uint256",
          "name": "",
          "type": "uint256"
        }
      ],
      "stateMutability": "view",
      "type": "function"
    },
    {
      "inputs": [],
      "name": "renounceOwnership",
      "outputs": [],
      "stateMutability": "nonpayable",
      "type": "function"
    },
    {
      "inputs": [
        {
          "internalType": "uint256",
          "name": "_pid",
          "type": "uint256"
        },
        {
          "internalType": "uint256",
          "name": "_allocPoint",
          "type": "uint256"
        },
        {
          "internalType": "bool",
          "name": "_withUpdate",
          "type": "bool"
        }
      ],
      "name": "set",
      "outputs": [],
      "stateMutability": "nonpayable",
      "type": "function"
    },
    {
      "inputs": [
        {
          "internalType": "uint256",
          "name": "percent",
          "type": "uint256"
        }
      ],
      "name": "setDevPercent",
      "outputs": [],
      "stateMutability": "nonpayable",
      "type": "function"
    },
    {
      "inputs": [
        {
          "internalType": "contract IMigratorChef",
          "name": "_migrator",
          "type": "address"
        }
      ],
      "name": "setMigrator",
      "outputs": [],
      "stateMutability": "nonpayable",
      "type": "function"
    },
    {
      "inputs": [
        {
          "internalType": "uint256",
          "name": "percent",
          "type": "uint256"
        }
      ],
      "name": "setRefPercent",
      "outputs": [],
      "stateMutability": "nonpayable",
      "type": "function"
    },
    {
      "inputs": [
        {
          "internalType": "uint256",
          "name": "percent",
          "type": "uint256"
        }
      ],
      "name": "setStakingPercent",
      "outputs": [],
      "stateMutability": "nonpayable",
      "type": "function"
    },
    {
      "inputs": [],
      "name": "stakingPercent",
      "outputs": [
        {
          "internalType": "uint256",
          "name": "",
          "type": "uint256"
        }
      ],
      "stateMutability": "view",
      "type": "function"
    },
    {
      "inputs": [],
      "name": "startBlock",
      "outputs": [
        {
          "internalType": "uint256",
          "name": "",
          "type": "uint256"
        }
      ],
      "stateMutability": "view",
      "type": "function"
    },
    {
      "inputs": [],
      "name": "totalAllocPoint",
      "outputs": [
        {
          "internalType": "uint256",
          "name": "",
          "type": "uint256"
        }
      ],
      "stateMutability": "view",
      "type": "function"
    },
    {
      "inputs": [
        {
          "internalType": "address",
          "name": "newOwner",
          "type": "address"
        }
      ],
      "name": "transferOwnership",
      "outputs": [],
      "stateMutability": "nonpayable",
      "type": "function"
    },
    {
      "inputs": [
        {
          "internalType": "uint256",
          "name": "_pid",
          "type": "uint256"
        }
      ],
      "name": "updatePool",
      "outputs": [],
      "stateMutability": "nonpayable",
      "type": "function"
    },
    {
      "inputs": [
        {
          "internalType": "uint256",
          "name": "",
          "type": "uint256"
        },
        {
          "internalType": "address",
          "name": "",
          "type": "address"
        }
      ],
      "name": "userInfo",
      "outputs": [
        {
          "internalType": "uint256",
          "name": "amount",
          "type": "uint256"
        },
        {
          "internalType": "uint256",
          "name": "rewardDebt",
          "type": "uint256"
        }
      ],
      "stateMutability": "view",
      "type": "function"
    },
    {
      "inputs": [
        {
          "internalType": "uint256",
          "name": "_pid",
          "type": "uint256"
        },
        {
          "internalType": "uint256",
          "name": "_amount",
          "type": "uint256"
        }
      ],
      "name": "withdraw",
      "outputs": [],
      "stateMutability": "nonpayable",
      "type": "function"
    },
    {
      "inputs": [],
      "name": "withdrawDevAndRefFee",
      "outputs": [],
      "stateMutability": "nonpayable",
      "type": "function"
    }
  ],
  "bytecode": "0x6080604052620f42406002556000600e5534801561001c57600080fd5b506040516123f63803806123f6833981810160405261012081101561004057600080fd5b508051602082015160408301516060840151608085015160a086015160c087015160e0880151610100909801519697959694959394929391929091906000610086610138565b600080546001600160a01b0319166001600160a01b0383169081178255604051929350917f8be0079c531659141344cd1fd0a4f28419497f9722a3daafe3b4186f6b6457e0908290a350600180546001600160a01b039a8b166001600160a01b03199182161790915560068054998b169982169990991790985560078054979099169690971695909517909655600a92909255600991909155600f81905560039390935560045560055560085561013c565b3390565b6122ab8061014b6000396000f3fe608060405234801561001057600080fd5b506004361061021c5760003560e01c806364482f79116101255780638da5cb5b116100ad578063be1193ea1161007c578063be1193ea1461052e578063d49e77cd14610536578063e2bbb1581461053e578063f2fde38b14610561578063fc3c28af146105875761021c565b80638da5cb5b146104b65780638dbb1e3a146104be57806393f1a40b146104e1578063b76e360c146105265761021c565b8063715018a6116100f4578063715018a61461045b5780637cd07e47146104635780638aa285501461046b5780638ceacf2f146104735780638d88a90e146104905761021c565b806364482f79146103ee57806369d0c5b8146104195780636eaddad2146104215780636fa4f5f71461043e5761021c565b8063305371ee116101a857806348cd4cb11161017757806348cd4cb11461039c57806351eb05a6146103a45780635312ea8e146103c157806359d5335b146103de578063630b5ba1146103e65761021c565b8063305371ee146103305780634062726514610354578063441a3e701461035c578063454b06081461037f5761021c565b80631aed6553116101ef5780631aed65531461029a5780631eaaa045146102a257806321b1aecb146102d657806323cf3118146102de578063295315bf146103045761021c565b8063081e3eda1461022157806312270c401461023b5780631526fe271461024557806317caf6f114610292575b600080fd5b61022961058f565b60408051918252519081900360200190f35b610243610595565b005b6102626004803603602081101561025b57600080fd5b5035610790565b604080516001600160a01b0390951685526020850193909352838301919091526060830152519081900360800190f35b6102296107d1565b6102296107d7565b610243600480360360608110156102b857600080fd5b508035906001600160a01b03602082013516906040013515156107dd565b610229610958565b610243600480360360208110156102f457600080fd5b50356001600160a01b031661095e565b6102296004803603604081101561031a57600080fd5b50803590602001356001600160a01b03166109d8565b610338610b54565b604080516001600160a01b039092168252519081900360200190f35b610229610b63565b6102436004803603604081101561037257600080fd5b5080359060200135610b69565b6102436004803603602081101561039557600080fd5b5035610cb0565b610229610f0c565b610243600480360360208110156103ba57600080fd5b5035610f12565b610243600480360360208110156103d757600080fd5b50356110bd565b610229611158565b61024361115e565b6102436004803603606081101561040457600080fd5b50803590602081013590604001351515611181565b610338611252565b6102436004803603602081101561043757600080fd5b5035611261565b6102436004803603602081101561045457600080fd5b5035611383565b6102436114a5565b610338611547565b610229611556565b6102436004803603602081101561048957600080fd5b503561155b565b610243600480360360208110156104a657600080fd5b50356001600160a01b031661167f565b6103386116ec565b610229600480360360408110156104d457600080fd5b50803590602001356116fb565b61050d600480360360408110156104f757600080fd5b50803590602001356001600160a01b0316611761565b6040805192835260208301919091528051918290030190f35b610229611785565b61022961178b565b610338611791565b6102436004803603604081101561055457600080fd5b50803590602001356117a0565b6102436004803603602081101561057757600080fd5b50356001600160a01b03166118a5565b610229611906565b600c5490565b61059d61190c565b6000546001600160a01b039081169116146105ed576040805162461bcd60e51b81526020600482018190526024820152600080516020612256833981519152604482015290519081900360640190fd5b4360085410610638576040805162461bcd60e51b81526020600482015260126024820152717761697420666f72206e657720626c6f636b60701b604482015290519081900360640190fd5b6000610646600854436116fb565b9050600061065f600a548361191090919063ffffffff16565b6001546006546002546004549394506001600160a01b03928316936340c10f19939092169161069a9190610694908790611910565b90611970565b6040518363ffffffff1660e01b815260040180836001600160a01b0316815260200182815260200192505050600060405180830381600087803b1580156106e057600080fd5b505af11580156106f4573d6000803e3d6000fd5b50506001546007546002546005546001600160a01b0393841695506340c10f199450919092169161072a91610694908790611910565b6040518363ffffffff1660e01b815260040180836001600160a01b0316815260200182815260200192505050600060405180830381600087803b15801561077057600080fd5b505af1158015610784573d6000803e3d6000fd5b50504360085550505050565b600c818154811061079d57fe5b600091825260209091206004909102018054600182015460028301546003909301546001600160a01b039092169350919084565b600e5481565b60095481565b6107e561190c565b6000546001600160a01b03908116911614610835576040805162461bcd60e51b81526020600482018190526024820152600080516020612256833981519152604482015290519081900360640190fd5b80156108435761084361115e565b6000600f54431161085657600f54610858565b435b600e5490915061086890856119b2565b600e55604080516080810182526001600160a01b03948516815260208101958652908101918252600060608201818152600c8054600181018255925291517fdf6966c971051c3d54ec59162606531493a51404a002842f56009d7e5cf4a8c7600490920291820180546001600160a01b031916919096161790945593517fdf6966c971051c3d54ec59162606531493a51404a002842f56009d7e5cf4a8c8840155517fdf6966c971051c3d54ec59162606531493a51404a002842f56009d7e5cf4a8c98301555090517fdf6966c971051c3d54ec59162606531493a51404a002842f56009d7e5cf4a8ca90910155565b60025481565b61096661190c565b6000546001600160a01b039081169116146109b6576040805162461bcd60e51b81526020600482018190526024820152600080516020612256833981519152604482015290519081900360640190fd5b600b80546001600160a01b0319166001600160a01b0392909216919091179055565b600080600c84815481106109e857fe5b60009182526020808320878452600d825260408085206001600160a01b03898116875290845281862060049586029093016003810154815484516370a0823160e01b81523098810198909852935191985093969395939492909116926370a08231926024808301939192829003018186803b158015610a6657600080fd5b505afa158015610a7a573d6000803e3d6000fd5b505050506040513d6020811015610a9057600080fd5b5051600285015490915043118015610aa757508015155b15610b19576000610abc8560020154436116fb565b90506000610af5600254610694600354610aef600e546106948c60010154610aef600a548b61191090919063ffffffff16565b90611910565b9050610b14610b0d846106948464e8d4a51000611910565b85906119b2565b935050505b610b478360010154610b4164e8d4a5100061069486886000015461191090919063ffffffff16565b90611a0c565b9450505050505b92915050565b6001546001600160a01b031681565b600a5481565b6000600c8381548110610b7857fe5b60009182526020808320868452600d825260408085203386529092529220805460049092029092019250831115610beb576040805162461bcd60e51b81526020600482015260126024820152711dda5d1a191c985dce881b9bdd0819dbdbd960721b604482015290519081900360640190fd5b610bf484610f12565b6000610c228260010154610b4164e8d4a510006106948760030154876000015461191090919063ffffffff16565b9050610c2e3382611a4e565b8154610c3a9085611a0c565b8083556003840154610c579164e8d4a51000916106949190611910565b60018301558254610c72906001600160a01b03163386611bdf565b604080518581529051869133917ff279e6a1f5e320cca91135676d9cb6e44ca8a08c0b88342bcdb1144f6511b5689181900360200190a35050505050565b600b546001600160a01b0316610d04576040805162461bcd60e51b815260206004820152601460248201527336b4b3b930ba329d1037379036b4b3b930ba37b960611b604482015290519081900360640190fd5b6000600c8281548110610d1357fe5b600091825260208083206004928302018054604080516370a0823160e01b81523095810195909552519195506001600160a01b0316939284926370a0823192602480840193829003018186803b158015610d6c57600080fd5b505afa158015610d80573d6000803e3d6000fd5b505050506040513d6020811015610d9657600080fd5b5051600b54909150610db5906001600160a01b03848116911683611c31565b600b546040805163ce5494bb60e01b81526001600160a01b0385811660048301529151600093929092169163ce5494bb9160248082019260209290919082900301818787803b158015610e0757600080fd5b505af1158015610e1b573d6000803e3d6000fd5b505050506040513d6020811015610e3157600080fd5b5051604080516370a0823160e01b815230600482015290519192506001600160a01b038316916370a0823191602480820192602092909190829003018186803b158015610e7d57600080fd5b505afa158015610e91573d6000803e3d6000fd5b505050506040513d6020811015610ea757600080fd5b50518214610eeb576040805162461bcd60e51b815260206004820152600c60248201526b1b5a59dc985d194e8818985960a21b604482015290519081900360640190fd5b83546001600160a01b0319166001600160a01b039190911617909255505050565b600f5481565b6000600c8281548110610f2157fe5b9060005260206000209060040201905080600201544311610f4257506110ba565b8054604080516370a0823160e01b815230600482015290516000926001600160a01b0316916370a08231916024808301926020929190829003018186803b158015610f8c57600080fd5b505afa158015610fa0573d6000803e3d6000fd5b505050506040513d6020811015610fb657600080fd5b5051905080610fcc5750436002909101556110ba565b6000610fdc8360020154436116fb565b9050600061100f600254610694600354610aef600e546106948a60010154610aef600a548b61191090919063ffffffff16565b600154604080516340c10f1960e01b81523060048201526024810184905290519293506001600160a01b03909116916340c10f199160448082019260009290919082900301818387803b15801561106557600080fd5b505af1158015611079573d6000803e3d6000fd5b505050506110a761109c8461069464e8d4a510008561191090919063ffffffff16565b6003860154906119b2565b6003850155505043600290920191909155505b50565b6000600c82815481106110cc57fe5b60009182526020808320858452600d82526040808520338087529352909320805460049093029093018054909450611111926001600160a01b03919091169190611bdf565b80546040805191825251849133917fbb757047c2b5f3974fe26b7c10f732e7bce710b0952a71082702781e62ae05959181900360200190a360008082556001909101555050565b60055481565b600c5460005b8181101561117d5761117581610f12565b600101611164565b5050565b61118961190c565b6000546001600160a01b039081169116146111d9576040805162461bcd60e51b81526020600482018190526024820152600080516020612256833981519152604482015290519081900360640190fd5b80156111e7576111e761115e565b6112248261121e600c86815481106111fb57fe5b906000526020600020906004020160010154600e54611a0c90919063ffffffff16565b906119b2565b600e8190555081600c848154811061123857fe5b906000526020600020906004020160010181905550505050565b6007546001600160a01b031681565b61126961190c565b6000546001600160a01b039081169116146112b9576040805162461bcd60e51b81526020600482018190526024820152600080516020612256833981519152604482015290519081900360640190fd5b620493e0811115611301576040805162461bcd60e51b815260206004820152600d60248201526c6d6f7265207468656e2033302560981b604482015290519081900360640190fd5b614e20811015611348576040805162461bcd60e51b815260206004820152600d60248201526c6c6f776572207468656e20322560981b604482015290519081900360640190fd5b60048190556040805182815290517f28b7e802ebca2ecc80c055b354726c102445546e2f4f7cec298132db42322e029181900360200190a150565b61138b61190c565b6000546001600160a01b039081169116146113db576040805162461bcd60e51b81526020600482018190526024820152600080516020612256833981519152604482015290519081900360640190fd5b6207a120811115611423576040805162461bcd60e51b815260206004820152600d60248201526c6d6f7265207468656e2035302560981b604482015290519081900360640190fd5b61c35081101561146a576040805162461bcd60e51b815260206004820152600d60248201526c6c6f776572207468656e20352560981b604482015290519081900360640190fd5b60058190556040805182815290517f5a76c5b95ccd13168f0b9d42f5bf6a179f93c1e381c7abf1107d8aba6bc4d2f09181900360200190a150565b6114ad61190c565b6000546001600160a01b039081169116146114fd576040805162461bcd60e51b81526020600482018190526024820152600080516020612256833981519152604482015290519081900360640190fd5b600080546040516001600160a01b03909116907f8be0079c531659141344cd1fd0a4f28419497f9722a3daafe3b4186f6b6457e0908390a3600080546001600160a01b0319169055565b600b546001600160a01b031681565b600181565b61156361190c565b6000546001600160a01b039081169116146115b3576040805162461bcd60e51b81526020600482018190526024820152600080516020612256833981519152604482015290519081900360640190fd5b620f424081106115fb576040805162461bcd60e51b815260206004820152600e60248201526d6d6f7265207468656e203130302560901b604482015290519081900360640190fd5b62061a80811015611644576040805162461bcd60e51b815260206004820152600e60248201526d6c6f776572207468656e2034302560901b604482015290519081900360640190fd5b60038190556040805182815290517ff0271cdb85b2b237145bf66f6de81f797407e568bb661e76e44ea306971edc949181900360200190a150565b6006546001600160a01b031633146116ca576040805162461bcd60e51b81526020600482015260096024820152686465763a207775743f60b81b604482015290519081900360640190fd5b600680546001600160a01b0319166001600160a01b0392909216919091179055565b6000546001600160a01b031690565b6000600954821161171c576117156001610aef8486611a0c565b9050610b4e565b600954831061172f576117158284611a0c565b61171561174760095484611a0c90919063ffffffff16565b61121e6001610aef87600954611a0c90919063ffffffff16565b600d6020908152600092835260408084209091529082529020805460019091015482565b60085481565b60035481565b6006546001600160a01b031681565b6000600c83815481106117af57fe5b60009182526020808320868452600d825260408085203386529092529220600490910290910191506117e084610f12565b8054156118235760006118158260010154610b4164e8d4a510006106948760030154876000015461191090919063ffffffff16565b90506118213382611a4e565b505b815461183a906001600160a01b0316333086611d44565b805461184690846119b2565b80825560038301546118639164e8d4a51000916106949190611910565b6001820155604080518481529051859133917f90890809c654f11d6e72a28fa60149770a0d11ec6c92319d6ceb2bb0a4ea1a159181900360200190a350505050565b6118ad61190c565b6000546001600160a01b039081169116146118fd576040805162461bcd60e51b81526020600482018190526024820152600080516020612256833981519152604482015290519081900360640190fd5b6110ba81611da4565b60045481565b3390565b60008261191f57506000610b4e565b8282028284828161192c57fe5b04146119695760405162461bcd60e51b81526004018080602001828103825260218152602001806121ff6021913960400191505060405180910390fd5b9392505050565b600061196983836040518060400160405280601a81526020017f536166654d6174683a206469766973696f6e206279207a65726f000000000000815250611e44565b600082820183811015611969576040805162461bcd60e51b815260206004820152601b60248201527f536166654d6174683a206164646974696f6e206f766572666c6f770000000000604482015290519081900360640190fd5b600061196983836040518060400160405280601e81526020017f536166654d6174683a207375627472616374696f6e206f766572666c6f770000815250611ee6565b600154604080516370a0823160e01b815230600482015290516000926001600160a01b0316916370a08231916024808301926020929190829003018186803b158015611a9957600080fd5b505afa158015611aad573d6000803e3d6000fd5b505050506040513d6020811015611ac357600080fd5b5051905080821115611b57576001546040805163a9059cbb60e01b81526001600160a01b038681166004830152602482018590529151919092169163a9059cbb9160448083019260209291908290030181600087803b158015611b2557600080fd5b505af1158015611b39573d6000803e3d6000fd5b505050506040513d6020811015611b4f57600080fd5b50611bda9050565b6001546040805163a9059cbb60e01b81526001600160a01b038681166004830152602482018690529151919092169163a9059cbb9160448083019260209291908290030181600087803b158015611bad57600080fd5b505af1158015611bc1573d6000803e3d6000fd5b505050506040513d6020811015611bd757600080fd5b50505b505050565b604080516001600160a01b038416602482015260448082018490528251808303909101815260649091019091526020810180516001600160e01b031663a9059cbb60e01b179052611bda908490611f40565b801580611cb7575060408051636eb1769f60e11b81523060048201526001600160a01b03848116602483015291519185169163dd62ed3e91604480820192602092909190829003018186803b158015611c8957600080fd5b505afa158015611c9d573d6000803e3d6000fd5b505050506040513d6020811015611cb357600080fd5b5051155b611cf25760405162461bcd60e51b81526004018080602001828103825260368152602001806122206036913960400191505060405180910390fd5b604080516001600160a01b038416602482015260448082018490528251808303909101815260649091019091526020810180516001600160e01b031663095ea7b360e01b179052611bda908490611f40565b604080516001600160a01b0380861660248301528416604482015260648082018490528251808303909101815260849091019091526020810180516001600160e01b03166323b872dd60e01b179052611d9e908590611f40565b50505050565b6001600160a01b038116611de95760405162461bcd60e51b81526004018080602001828103825260268152602001806121d96026913960400191505060405180910390fd5b600080546040516001600160a01b03808516939216917f8be0079c531659141344cd1fd0a4f28419497f9722a3daafe3b4186f6b6457e091a3600080546001600160a01b0319166001600160a01b0392909216919091179055565b60008183611ed05760405162461bcd60e51b81526004018080602001828103825283818151815260200191508051906020019080838360005b83811015611e95578181015183820152602001611e7d565b50505050905090810190601f168015611ec25780820380516001836020036101000a031916815260200191505b509250505060405180910390fd5b506000838581611edc57fe5b0495945050505050565b60008184841115611f385760405162461bcd60e51b8152602060048201818152835160248401528351909283926044909101919085019080838360008315611e95578181015183820152602001611e7d565b505050900390565b6060611f95826040518060400160405280602081526020017f5361666542455032303a206c6f772d6c6576656c2063616c6c206661696c6564815250856001600160a01b0316611ff19092919063ffffffff16565b805190915015611bda57808060200190516020811015611fb457600080fd5b5051611bda5760405162461bcd60e51b815260040180806020018281038252602a8152602001806121af602a913960400191505060405180910390fd5b60606120008484600085612008565b949350505050565b606061201385612175565b612064576040805162461bcd60e51b815260206004820152601d60248201527f416464726573733a2063616c6c20746f206e6f6e2d636f6e7472616374000000604482015290519081900360640190fd5b60006060866001600160a01b031685876040518082805190602001908083835b602083106120a35780518252601f199092019160209182019101612084565b6001836020036101000a03801982511681845116808217855250505050505090500191505060006040518083038185875af1925050503d8060008114612105576040519150601f19603f3d011682016040523d82523d6000602084013e61210a565b606091505b5091509150811561211e5791506120009050565b80511561212e5780518082602001fd5b60405162461bcd60e51b8152602060048201818152865160248401528651879391928392604401919085019080838360008315611e95578181015183820152602001611e7d565b6000813f7fc5d2460186f7233c927e7db2dcc703c0e500b653ca82273b7bfad8045d85a47081811480159061200057505015159291505056fe5361666542455032303a204245503230206f7065726174696f6e20646964206e6f7420737563636565644f776e61626c653a206e6577206f776e657220697320746865207a65726f2061646472657373536166654d6174683a206d756c7469706c69636174696f6e206f766572666c6f775361666542455032303a20617070726f76652066726f6d206e6f6e2d7a65726f20746f206e6f6e2d7a65726f20616c6c6f77616e63654f776e61626c653a2063616c6c6572206973206e6f7420746865206f776e6572a2646970667358221220294b9c69339d03eece093f8bcc0c247ce58a1104186bc850e7a988890d1f7d5564736f6c634300060c0033",
  "linkReferences": {},
  "deployedLinkReferences": {}
}