{
  "_format": "hh-sol-artifact-1",
  "contractName": "SmartChef",
  "sourceName": "contracts/SmartChef.sol",
  "abi": [
    {
      "inputs": [
        {
          "internalType": "contract IBEP20",
          "name": "_bsw",
          "type": "address"
        },
        {
          "internalType": "contract IBEP20",
          "name": "_rewardToken",
          "type": "address"
        },
        {
          "internalType": "uint256",
          "name": "_rewardPerBlock",
          "type": "uint256"
        },
        {
          "internalType": "uint256",
          "name": "_startBlock",
          "type": "uint256"
        },
        {
          "internalType": "uint256",
          "name": "_bonusEndBlock",
          "type": "uint256"
        },
        {
          "internalType": "uint256",
          "name": "_refPercent",
          "type": "uint256"
        },
        {
          "internalType": "address",
          "name": "_refFeeAddr",
          "type": "address"
        }
      ],
      "stateMutability": "nonpayable",
      "type": "constructor"
    },
    {
      "anonymous": false,
      "inputs": [
        {
          "indexed": true,
          "internalType": "address",
          "name": "user",
          "type": "address"
        },
        {
          "indexed": false,
          "internalType": "uint256",
          "name": "amount",
          "type": "uint256"
        }
      ],
      "name": "Deposit",
      "type": "event"
    },
    {
      "anonymous": false,
      "inputs": [
        {
          "indexed": true,
          "internalType": "address",
          "name": "user",
          "type": "address"
        },
        {
          "indexed": false,
          "internalType": "uint256",
          "name": "amount",
          "type": "uint256"
        }
      ],
      "name": "EmergencyWithdraw",
      "type": "event"
    },
    {
      "anonymous": false,
      "inputs": [
        {
          "indexed": true,
          "internalType": "address",
          "name": "previousOwner",
          "type": "address"
        },
        {
          "indexed": true,
          "internalType": "address",
          "name": "newOwner",
          "type": "address"
        }
      ],
      "name": "OwnershipTransferred",
      "type": "event"
    },
    {
      "anonymous": false,
      "inputs": [
        {
          "indexed": false,
          "internalType": "uint256",
          "name": "currentPercent",
          "type": "uint256"
        }
      ],
      "name": "RefPercentChanged",
      "type": "event"
    },
    {
      "anonymous": false,
      "inputs": [
        {
          "indexed": true,
          "internalType": "address",
          "name": "user",
          "type": "address"
        },
        {
          "indexed": false,
          "internalType": "uint256",
          "name": "amount",
          "type": "uint256"
        }
      ],
      "name": "Withdraw",
      "type": "event"
    },
    {
      "inputs": [],
      "name": "biswap",
      "outputs": [
        {
          "internalType": "contract IBEP20",
          "name": "",
          "type": "address"
        }
      ],
      "stateMutability": "view",
      "type": "function"
    },
    {
      "inputs": [],
      "name": "bonusEndBlock",
      "outputs": [
        {
          "internalType": "uint256",
          "name": "",
          "type": "uint256"
        }
      ],
      "stateMutability": "view",
      "type": "function"
    },
    {
      "inputs": [
        {
          "internalType": "uint256",
          "name": "_amount",
          "type": "uint256"
        }
      ],
      "name": "deposit",
      "outputs": [],
      "stateMutability": "nonpayable",
      "type": "function"
    },
    {
      "inputs": [
        {
          "internalType": "uint256",
          "name": "_amount",
          "type": "uint256"
        }
      ],
      "name": "emergencyRewardWithdraw",
      "outputs": [],
      "stateMutability": "nonpayable",
      "type": "function"
    },
    {
      "inputs": [],
      "name": "emergencyWithdraw",
      "outputs": [],
      "stateMutability": "nonpayable",
      "type": "function"
    },
    {
      "inputs": [
        {
          "internalType": "uint256",
          "name": "_from",
          "type": "uint256"
        },
        {
          "internalType": "uint256",
          "name": "_to",
          "type": "uint256"
        }
      ],
      "name": "getMultiplier",
      "outputs": [
        {
          "internalType": "uint256",
          "name": "",
          "type": "uint256"
        }
      ],
      "stateMutability": "view",
      "type": "function"
    },
    {
      "inputs": [],
      "name": "lastBlockDevWithdraw",
      "outputs": [
        {
          "internalType": "uint256",
          "name": "",
          "type": "uint256"
        }
      ],
      "stateMutability": "view",
      "type": "function"
    },
    {
      "inputs": [],
      "name": "massUpdatePools",
      "outputs": [],
      "stateMutability": "nonpayable",
      "type": "function"
    },
    {
      "inputs": [],
      "name": "owner",
      "outputs": [
        {
          "internalType": "address",
          "name": "",
          "type": "address"
        }
      ],
      "stateMutability": "view",
      "type": "function"
    },
    {
      "inputs": [
        {
          "internalType": "address",
          "name": "_user",
          "type": "address"
        }
      ],
      "name": "pendingReward",
      "outputs": [
        {
          "internalType": "uint256",
          "name": "",
          "type": "uint256"
        }
      ],
      "stateMutability": "view",
      "type": "function"
    },
    {
      "inputs": [],
      "name": "percentDec",
      "outputs": [
        {
          "internalType": "uint256",
          "name": "",
          "type": "uint256"
        }
      ],
      "stateMutability": "view",
      "type": "function"
    },
    {
      "inputs": [
        {
          "internalType": "uint256",
          "name": "",
          "type": "uint256"
        }
      ],
      "name": "poolInfo",
      "outputs": [
        {
          "internalType": "contract IBEP20",
          "name": "lpToken",
          "type": "address"
        },
        {
          "internalType": "uint256",
          "name": "allocPoint",
          "type": "uint256"
        },
        {
          "internalType": "uint256",
          "name": "lastRewardBlock",
          "type": "uint256"
        },
        {
          "internalType": "uint256",
          "name": "accBSWPerShare",
          "type": "uint256"
        }
      ],
      "stateMutability": "view",
      "type": "function"
    },
    {
      "inputs": [],
      "name": "refAddr",
      "outputs": [
        {
          "internalType": "address",
          "name": "",
          "type": "address"
        }
      ],
      "stateMutability": "view",
      "type": "function"
    },
    {
      "inputs": [],
      "name": "refPercent",
      "outputs": [
        {
          "internalType": "uint256",
          "name": "",
          "type": "uint256"
        }
      ],
      "stateMutability": "view",
      "type": "function"
    },
    {
      "inputs": [],
      "name": "renounceOwnership",
      "outputs": [],
      "stateMutability": "nonpayable",
      "type": "function"
    },
    {
      "inputs": [],
      "name": "rewardPerBlock",
      "outputs": [
        {
          "internalType": "uint256",
          "name": "",
          "type": "uint256"
        }
      ],
      "stateMutability": "view",
      "type": "function"
    },
    {
      "inputs": [],
      "name": "rewardToken",
      "outputs": [
        {
          "internalType": "contract IBEP20",
          "name": "",
          "type": "address"
        }
      ],
      "stateMutability": "view",
      "type": "function"
    },
    {
      "inputs": [
        {
          "internalType": "uint256",
          "name": "percent",
          "type": "uint256"
        }
      ],
      "name": "setRefPercent",
      "outputs": [],
      "stateMutability": "nonpayable",
      "type": "function"
    },
    {
      "inputs": [],
      "name": "startBlock",
      "outputs": [
        {
          "internalType": "uint256",
          "name": "",
          "type": "uint256"
        }
      ],
      "stateMutability": "view",
      "type": "function"
    },
    {
      "inputs": [],
      "name": "totalAllocPoint",
      "outputs": [
        {
          "internalType": "uint256",
          "name": "",
          "type": "uint256"
        }
      ],
      "stateMutability": "view",
      "type": "function"
    },
    {
      "inputs": [
        {
          "internalType": "address",
          "name": "newOwner",
          "type": "address"
        }
      ],
      "name": "transferOwnership",
      "outputs": [],
      "stateMutability": "nonpayable",
      "type": "function"
    },
    {
      "inputs": [
        {
          "internalType": "uint256",
          "name": "_pid",
          "type": "uint256"
        }
      ],
      "name": "updatePool",
      "outputs": [],
      "stateMutability": "nonpayable",
      "type": "function"
    },
    {
      "inputs": [
        {
          "internalType": "address",
          "name": "",
          "type": "address"
        }
      ],
      "name": "userInfo",
      "outputs": [
        {
          "internalType": "uint256",
          "name": "amount",
          "type": "uint256"
        },
        {
          "internalType": "uint256",
          "name": "rewardDebt",
          "type": "uint256"
        }
      ],
      "stateMutability": "view",
      "type": "function"
    },
    {
      "inputs": [
        {
          "internalType": "uint256",
          "name": "_amount",
          "type": "uint256"
        }
      ],
      "name": "withdraw",
      "outputs": [],
      "stateMutability": "nonpayable",
      "type": "function"
    },
    {
      "inputs": [],
      "name": "withdrawRefFee",
      "outputs": [],
      "stateMutability": "nonpayable",
      "type": "function"
    }
  ],
  "bytecode": "0x6080604052620f4240600655600060075534801561001c57600080fd5b50604051611810380380611810833981810160405260e081101561003f57600080fd5b508051602082015160408301516060840151608085015160a086015160c09096015194959394929391929091906000610076610200565b600080546001600160a01b0319166001600160a01b0383169081178255604051929350917f8be0079c531659141344cd1fd0a4f28419497f9722a3daafe3b4186f6b6457e0908290a350600180546001600160a01b03199081166001600160a01b03998a169081178355600280548316998b16999099179098556003969096556008859055600993909355600a91909155600b80548516918716919091179055600c829055604080516080810182529485526103e8602086018181529186019384526000606087018181526004805495860181559182905296517f8a35acfbc15ff81a39ae7d344fd709f28e8600b4aa8c65c6b64bfe7fe36bd19b94909102938401805490961697169690961790935591517f8a35acfbc15ff81a39ae7d344fd709f28e8600b4aa8c65c6b64bfe7fe36bd19c830155517f8a35acfbc15ff81a39ae7d344fd709f28e8600b4aa8c65c6b64bfe7fe36bd19d82015590517f8a35acfbc15ff81a39ae7d344fd709f28e8600b4aa8c65c6b64bfe7fe36bd19e90910155600755610204565b3390565b6115fd806102136000396000f3fe608060405234801561001057600080fd5b50600436106101735760003560e01c80636fa4f5f7116100de578063b6b55f2511610097578063db2e21bc11610071578063db2e21bc14610350578063f2fde38b14610358578063f40f0f521461037e578063f7c618c1146103a457610173565b8063b6b55f2514610323578063b76e360c14610340578063bed57e211461034857610173565b80636fa4f5f7146102c3578063715018a6146102e05780637d7f12f1146102e85780638ae39cac146102f05780638da5cb5b146102f85780638dbb1e3a1461030057610173565b80633279beab116101305780633279beab1461024d57806348cd4cb11461026a57806351eb05a61461027257806359d5335b1461028f578063630b5ba11461029757806369d0c5b81461029f57610173565b80631526fe271461017857806317caf6f1146101c55780631959a002146101df5780631aed65531461021e57806321b1aecb146102265780632e1a7d4d1461022e575b600080fd5b6101956004803603602081101561018e57600080fd5b50356103ac565b604080516001600160a01b0390951685526020850193909352838301919091526060830152519081900360800190f35b6101cd6103ed565b60408051918252519081900360200190f35b610205600480360360208110156101f557600080fd5b50356001600160a01b03166103f3565b6040805192835260208301919091528051918290030190f35b6101cd61040c565b6101cd610412565b61024b6004803603602081101561024457600080fd5b5035610418565b005b61024b6004803603602081101561026357600080fd5b5035610586565b6101cd6106b5565b61024b6004803603602081101561028857600080fd5b50356106bb565b6101cd6107ea565b61024b6107f0565b6102a7610813565b604080516001600160a01b039092168252519081900360200190f35b61024b600480360360208110156102d957600080fd5b5035610822565b61024b610944565b61024b6109e6565b6101cd610af7565b6102a7610afd565b6101cd6004803603604081101561031657600080fd5b5080359060200135610b0c565b61024b6004803603602081101561033957600080fd5b5035610b4c565b6101cd610c61565b6102a7610c67565b61024b610c76565b61024b6004803603602081101561036e57600080fd5b50356001600160a01b0316610d09565b6101cd6004803603602081101561039457600080fd5b50356001600160a01b0316610d6a565b6102a7610ec2565b600481815481106103b957fe5b600091825260209091206004909102018054600182015460028301546003909301546001600160a01b039092169350919084565b60075481565b6005602052600090815260409020805460019091015482565b60095481565b60065481565b6000600460008154811061042857fe5b6000918252602080832033845260059091526040909220805460049092029092019250831115610494576040805162461bcd60e51b81526020600482015260126024820152711dda5d1a191c985dce881b9bdd0819dbdbd960721b604482015290519081900360640190fd5b61049e60006106bb565b60006104d882600101546104d264e8d4a510006104cc87600301548760000154610ed190919063ffffffff16565b90610f31565b90610f73565b90508015610500576104e981610fb5565b600254610500906001600160a01b03163383610ff6565b831561052a5781546105129085610f73565b8255825461052a906001600160a01b03163386610ff6565b600383015482546105459164e8d4a51000916104cc91610ed1565b600183015560408051858152905133917f884edad9ce6fa2440d8a54cc123490eb96d2768479d49ff9c7366125a9424364919081900360200190a250505050565b61058e61104d565b6000546001600160a01b039081169116146105de576040805162461bcd60e51b815260206004820181905260248201526000805160206115a8833981519152604482015290519081900360640190fd5b600254604080516370a0823160e01b815230600482015290516001600160a01b03909216916370a0823191602480820192602092909190829003018186803b15801561062957600080fd5b505afa15801561063d573d6000803e3d6000fd5b505050506040513d602081101561065357600080fd5b5051811061069b576040805162461bcd60e51b815260206004820152601060248201526f3737ba1032b737bab3b4103a37b5b2b760811b604482015290519081900360640190fd5b6002546106b2906001600160a01b03163383610ff6565b50565b60085481565b6000600482815481106106ca57fe5b90600052602060002090600402019050806002015443116106eb57506106b2565b8054604080516370a0823160e01b815230600482015290516000926001600160a01b0316916370a08231916024808301926020929190829003018186803b15801561073557600080fd5b505afa158015610749573d6000803e3d6000fd5b505050506040513d602081101561075f57600080fd5b50519050806107755750436002909101556106b2565b6000610785836002015443610b0c565b905060006107b26007546104cc86600101546107ac60035487610ed190919063ffffffff16565b90610ed1565b90506107d56107ca846104cc8464e8d4a51000610ed1565b600386015490611051565b60038501555050436002909201919091555050565b600a5481565b60045460005b8181101561080f57610807816106bb565b6001016107f6565b5050565b600b546001600160a01b031681565b61082a61104d565b6000546001600160a01b0390811691161461087a576040805162461bcd60e51b815260206004820181905260248201526000805160206115a8833981519152604482015290519081900360640190fd5b6207a1208111156108c2576040805162461bcd60e51b815260206004820152600d60248201526c6d6f7265207468656e2035302560981b604482015290519081900360640190fd5b61c350811015610909576040805162461bcd60e51b815260206004820152600d60248201526c6c6f776572207468656e20352560981b604482015290519081900360640190fd5b600a8190556040805182815290517f5a76c5b95ccd13168f0b9d42f5bf6a179f93c1e381c7abf1107d8aba6bc4d2f09181900360200190a150565b61094c61104d565b6000546001600160a01b0390811691161461099c576040805162461bcd60e51b815260206004820181905260248201526000805160206115a8833981519152604482015290519081900360640190fd5b600080546040516001600160a01b03909116907f8be0079c531659141344cd1fd0a4f28419497f9722a3daafe3b4186f6b6457e0908390a3600080546001600160a01b0319169055565b6109ee61104d565b6000546001600160a01b03908116911614610a3e576040805162461bcd60e51b815260206004820181905260248201526000805160206115a8833981519152604482015290519081900360640190fd5b43600c5410610a89576040805162461bcd60e51b81526020600482015260126024820152717761697420666f72206e657720626c6f636b60701b604482015290519081900360640190fd5b6000610a97600c5443610b0c565b90506000610ab060035483610ed190919063ffffffff16565b600b54600654600a54929350610aef926001600160a01b0390921691610adc91906104cc908690610ed1565b6002546001600160a01b03169190610ff6565b505043600c55565b60035481565b6000546001600160a01b031690565b60006009548211610b2857610b218284610f73565b9050610b46565b6009548310610b3957506000610b46565b600954610b219084610f73565b92915050565b60006004600081548110610b5c57fe5b60009182526020808320338452600590915260408320600490920201925090610b84906106bb565b805415610bda576000610bb982600101546104d264e8d4a510006104cc87600301548760000154610ed190919063ffffffff16565b90508015610bd857600254610bd8906001600160a01b03163383610ff6565b505b8215610c06578154610bf7906001600160a01b03163330866110ab565b8054610c039084611051565b81555b60038201548154610c219164e8d4a51000916104cc91610ed1565b600182015560408051848152905133917fe1fffcc4923d04b559f4d29a8bfc6cda04eb5b0d3c460751c2402c5c5cc9109c919081900360200190a2505050565b600c5481565b6001546001600160a01b031681565b60006004600081548110610c8657fe5b600091825260208083203380855260059092526040909320805460049093029093018054909450610cc4926001600160a01b03919091169190610ff6565b600080825560018201819055604080519182525133917f5fafa99d0643513820be26656b45130b01e1c03062e1266bf36f88cbd3bd9695919081900360200190a25050565b610d1161104d565b6000546001600160a01b03908116911614610d61576040805162461bcd60e51b815260206004820181905260248201526000805160206115a8833981519152604482015290519081900360640190fd5b6106b28161110b565b6000806004600081548110610d7b57fe5b600091825260208083206001600160a01b03878116855260058352604080862060049586029093016003810154815483516370a0823160e01b81523098810198909852925191985093969395939491909216926370a082319260248083019392829003018186803b158015610def57600080fd5b505afa158015610e03573d6000803e3d6000fd5b505050506040513d6020811015610e1957600080fd5b5051600285015490915043118015610e3057508015155b15610e90576000610e45856002015443610b0c565b90506000610e6c6007546104cc88600101546107ac60035487610ed190919063ffffffff16565b9050610e8b610e84846104cc8464e8d4a51000610ed1565b8590611051565b935050505b610eb883600101546104d264e8d4a510006104cc868860000154610ed190919063ffffffff16565b9695505050505050565b6002546001600160a01b031681565b600082610ee057506000610b46565b82820282848281610eed57fe5b0414610f2a5760405162461bcd60e51b81526004018080602001828103825260218152602001806115876021913960400191505060405180910390fd5b9392505050565b6000610f2a83836040518060400160405280601a81526020017f536166654d6174683a206469766973696f6e206279207a65726f0000000000008152506111ab565b6000610f2a83836040518060400160405280601e81526020017f536166654d6174683a207375627472616374696f6e206f766572666c6f77000081525061124d565b6040805160248082018490528251808303909101815260449091019091526020810180516001600160e01b031663f5b1bba960e01b1790526106b2906112a7565b604080516001600160a01b038416602482015260448082018490528251808303909101815260649091019091526020810180516001600160e01b031663a9059cbb60e01b1790526110489084906112c8565b505050565b3390565b600082820183811015610f2a576040805162461bcd60e51b815260206004820152601b60248201527f536166654d6174683a206164646974696f6e206f766572666c6f770000000000604482015290519081900360640190fd5b604080516001600160a01b0380861660248301528416604482015260648082018490528251808303909101815260849091019091526020810180516001600160e01b03166323b872dd60e01b1790526111059085906112c8565b50505050565b6001600160a01b0381166111505760405162461bcd60e51b81526004018080602001828103825260268152602001806115616026913960400191505060405180910390fd5b600080546040516001600160a01b03808516939216917f8be0079c531659141344cd1fd0a4f28419497f9722a3daafe3b4186f6b6457e091a3600080546001600160a01b0319166001600160a01b0392909216919091179055565b600081836112375760405162461bcd60e51b81526004018080602001828103825283818151815260200191508051906020019080838360005b838110156111fc5781810151838201526020016111e4565b50505050905090810190601f1680156112295780820380516001836020036101000a031916815260200191505b509250505060405180910390fd5b50600083858161124357fe5b0495945050505050565b6000818484111561129f5760405162461bcd60e51b81526020600482018181528351602484015283519092839260449091019190850190808383600083156111fc5781810151838201526020016111e4565b505050900390565b80516a636f6e736f6c652e6c6f67602083016000808483855afa5050505050565b606061131d826040518060400160405280602081526020017f5361666542455032303a206c6f772d6c6576656c2063616c6c206661696c6564815250856001600160a01b03166113799092919063ffffffff16565b8051909150156110485780806020019051602081101561133c57600080fd5b50516110485760405162461bcd60e51b815260040180806020018281038252602a815260200180611537602a913960400191505060405180910390fd5b60606113888484600085611390565b949350505050565b606061139b856114fd565b6113ec576040805162461bcd60e51b815260206004820152601d60248201527f416464726573733a2063616c6c20746f206e6f6e2d636f6e7472616374000000604482015290519081900360640190fd5b60006060866001600160a01b031685876040518082805190602001908083835b6020831061142b5780518252601f19909201916020918201910161140c565b6001836020036101000a03801982511681845116808217855250505050505090500191505060006040518083038185875af1925050503d806000811461148d576040519150601f19603f3d011682016040523d82523d6000602084013e611492565b606091505b509150915081156114a65791506113889050565b8051156114b65780518082602001fd5b60405162461bcd60e51b81526020600482018181528651602484015286518793919283926044019190850190808383600083156111fc5781810151838201526020016111e4565b6000813f7fc5d2460186f7233c927e7db2dcc703c0e500b653ca82273b7bfad8045d85a47081811480159061138857505015159291505056fe5361666542455032303a204245503230206f7065726174696f6e20646964206e6f7420737563636565644f776e61626c653a206e6577206f776e657220697320746865207a65726f2061646472657373536166654d6174683a206d756c7469706c69636174696f6e206f766572666c6f774f776e61626c653a2063616c6c6572206973206e6f7420746865206f776e6572a2646970667358221220fa5d84e4dc6c514c27cea520086a72030d7f06253c42aebe558ae89541286f9e64736f6c634300060c0033",
  "linkReferences": {},
  "deployedLinkReferences": {}
}